{
	"Logistica.sol": {
		"Logistica": {
			"abi": [
				{
					"inputs": [],
					"name": "resgistrarEnvio",
					"outputs": [],
					"stateMutability": "nonpayable",
					"type": "function"
				},
				{
					"inputs": [],
					"name": "status",
					"outputs": [
						{
							"internalType": "string",
							"name": "",
							"type": "string"
						}
					],
					"stateMutability": "view",
					"type": "function"
				}
			],
			"devdoc": {
				"kind": "dev",
				"methods": {},
				"version": 1
			},
			"evm": {
				"assembly": "    /* \"Logistica.sol\":59:240  contract Logistica {... */\n  mstore(0x40, 0x80)\n  callvalue\n  dup1\n  iszero\n  tag_1\n  jumpi\n  revert(0x00, 0x00)\ntag_1:\n  pop\n  dataSize(sub_0)\n  dup1\n  dataOffset(sub_0)\n  0x00\n  codecopy\n  0x00\n  return\nstop\n\nsub_0: assembly {\n        /* \"Logistica.sol\":59:240  contract Logistica {... */\n      mstore(0x40, 0x80)\n      callvalue\n      dup1\n      iszero\n      tag_1\n      jumpi\n      revert(0x00, 0x00)\n    tag_1:\n      pop\n      jumpi(tag_2, lt(calldatasize, 0x04))\n      shr(0xe0, calldataload(0x00))\n      dup1\n      0x200d2ed2\n      eq\n      tag_3\n      jumpi\n      dup1\n      0x786f0dea\n      eq\n      tag_4\n      jumpi\n    tag_2:\n      revert(0x00, 0x00)\n        /* \"Logistica.sol\":85:105  string public status */\n    tag_3:\n      tag_5\n      tag_6\n      jump\t// in\n    tag_5:\n      mload(0x40)\n      tag_7\n      swap2\n      swap1\n      tag_8\n      jump\t// in\n    tag_7:\n      mload(0x40)\n      dup1\n      swap2\n      sub\n      swap1\n      return\n        /* \"Logistica.sol\":152:231  function resgistrarEnvio() public {... */\n    tag_4:\n      tag_9\n      tag_10\n      jump\t// in\n    tag_9:\n      stop\n        /* \"Logistica.sol\":85:105  string public status */\n    tag_6:\n      0x00\n      dup1\n      sload\n      tag_11\n      swap1\n      tag_12\n      jump\t// in\n    tag_11:\n      dup1\n      0x1f\n      add\n      0x20\n      dup1\n      swap2\n      div\n      mul\n      0x20\n      add\n      mload(0x40)\n      swap1\n      dup2\n      add\n      0x40\n      mstore\n      dup1\n      swap3\n      swap2\n      swap1\n      dup2\n      dup2\n      mstore\n      0x20\n      add\n      dup3\n      dup1\n      sload\n      tag_13\n      swap1\n      tag_12\n      jump\t// in\n    tag_13:\n      dup1\n      iszero\n      tag_14\n      jumpi\n      dup1\n      0x1f\n      lt\n      tag_15\n      jumpi\n      0x0100\n      dup1\n      dup4\n      sload\n      div\n      mul\n      dup4\n      mstore\n      swap2\n      0x20\n      add\n      swap2\n      jump(tag_14)\n    tag_15:\n      dup3\n      add\n      swap2\n      swap1\n      0x00\n      mstore\n      keccak256(0x00, 0x20)\n      swap1\n    tag_16:\n      dup2\n      sload\n      dup2\n      mstore\n      swap1\n      0x01\n      add\n      swap1\n      0x20\n      add\n      dup1\n      dup4\n      gt\n      tag_16\n      jumpi\n      dup3\n      swap1\n      sub\n      0x1f\n      and\n      dup3\n      add\n      swap2\n    tag_14:\n      pop\n      pop\n      pop\n      pop\n      pop\n      dup2\n      jump\t// out\n        /* \"Logistica.sol\":152:231  function resgistrarEnvio() public {... */\n    tag_10:\n        /* \"Logistica.sol\":197:223  status = \"Produto enviado\" */\n      mload(0x40)\n      dup1\n      0x40\n      add\n      0x40\n      mstore\n      dup1\n      0x0f\n      dup2\n      mstore\n      0x20\n      add\n      0x50726f6475746f20656e766961646f0000000000000000000000000000000000\n      dup2\n      mstore\n      pop\n        /* \"Logistica.sol\":197:203  status */\n      0x00\n        /* \"Logistica.sol\":197:223  status = \"Produto enviado\" */\n      swap1\n      dup2\n      tag_18\n      swap2\n      swap1\n      tag_19\n      jump\t// in\n    tag_18:\n      pop\n        /* \"Logistica.sol\":152:231  function resgistrarEnvio() public {... */\n      jump\t// out\n        /* \"#utility.yul\":7:106   */\n    tag_20:\n        /* \"#utility.yul\":59:65   */\n      0x00\n        /* \"#utility.yul\":93:98   */\n      dup2\n        /* \"#utility.yul\":87:99   */\n      mload\n        /* \"#utility.yul\":77:99   */\n      swap1\n      pop\n        /* \"#utility.yul\":7:106   */\n      swap2\n      swap1\n      pop\n      jump\t// out\n        /* \"#utility.yul\":112:281   */\n    tag_21:\n        /* \"#utility.yul\":196:207   */\n      0x00\n        /* \"#utility.yul\":230:236   */\n      dup3\n        /* \"#utility.yul\":225:228   */\n      dup3\n        /* \"#utility.yul\":218:237   */\n      mstore\n        /* \"#utility.yul\":270:274   */\n      0x20\n        /* \"#utility.yul\":265:268   */\n      dup3\n        /* \"#utility.yul\":261:275   */\n      add\n        /* \"#utility.yul\":246:275   */\n      swap1\n      pop\n        /* \"#utility.yul\":112:281   */\n      swap3\n      swap2\n      pop\n      pop\n      jump\t// out\n        /* \"#utility.yul\":287:426   */\n    tag_22:\n        /* \"#utility.yul\":376:382   */\n      dup3\n        /* \"#utility.yul\":371:374   */\n      dup2\n        /* \"#utility.yul\":366:369   */\n      dup4\n        /* \"#utility.yul\":360:383   */\n      mcopy\n        /* \"#utility.yul\":417:418   */\n      0x00\n        /* \"#utility.yul\":408:414   */\n      dup4\n        /* \"#utility.yul\":403:406   */\n      dup4\n        /* \"#utility.yul\":399:415   */\n      add\n        /* \"#utility.yul\":392:419   */\n      mstore\n        /* \"#utility.yul\":287:426   */\n      pop\n      pop\n      pop\n      jump\t// out\n        /* \"#utility.yul\":432:534   */\n    tag_23:\n        /* \"#utility.yul\":473:479   */\n      0x00\n        /* \"#utility.yul\":524:526   */\n      0x1f\n        /* \"#utility.yul\":520:527   */\n      not\n        /* \"#utility.yul\":515:517   */\n      0x1f\n        /* \"#utility.yul\":508:513   */\n      dup4\n        /* \"#utility.yul\":504:518   */\n      add\n        /* \"#utility.yul\":500:528   */\n      and\n        /* \"#utility.yul\":490:528   */\n      swap1\n      pop\n        /* \"#utility.yul\":432:534   */\n      swap2\n      swap1\n      pop\n      jump\t// out\n        /* \"#utility.yul\":540:917   */\n    tag_24:\n        /* \"#utility.yul\":628:631   */\n      0x00\n        /* \"#utility.yul\":656:695   */\n      tag_49\n        /* \"#utility.yul\":689:694   */\n      dup3\n        /* \"#utility.yul\":656:695   */\n      tag_20\n      jump\t// in\n    tag_49:\n        /* \"#utility.yul\":711:782   */\n      tag_50\n        /* \"#utility.yul\":775:781   */\n      dup2\n        /* \"#utility.yul\":770:773   */\n      dup6\n        /* \"#utility.yul\":711:782   */\n      tag_21\n      jump\t// in\n    tag_50:\n        /* \"#utility.yul\":704:782   */\n      swap4\n      pop\n        /* \"#utility.yul\":791:856   */\n      tag_51\n        /* \"#utility.yul\":849:855   */\n      dup2\n        /* \"#utility.yul\":844:847   */\n      dup6\n        /* \"#utility.yul\":837:841   */\n      0x20\n        /* \"#utility.yul\":830:835   */\n      dup7\n        /* \"#utility.yul\":826:842   */\n      add\n        /* \"#utility.yul\":791:856   */\n      tag_22\n      jump\t// in\n    tag_51:\n        /* \"#utility.yul\":881:910   */\n      tag_52\n        /* \"#utility.yul\":903:909   */\n      dup2\n        /* \"#utility.yul\":881:910   */\n      tag_23\n      jump\t// in\n    tag_52:\n        /* \"#utility.yul\":876:879   */\n      dup5\n        /* \"#utility.yul\":872:911   */\n      add\n        /* \"#utility.yul\":865:911   */\n      swap2\n      pop\n        /* \"#utility.yul\":632:917   */\n      pop\n        /* \"#utility.yul\":540:917   */\n      swap3\n      swap2\n      pop\n      pop\n      jump\t// out\n        /* \"#utility.yul\":923:1236   */\n    tag_8:\n        /* \"#utility.yul\":1036:1040   */\n      0x00\n        /* \"#utility.yul\":1074:1076   */\n      0x20\n        /* \"#utility.yul\":1063:1072   */\n      dup3\n        /* \"#utility.yul\":1059:1077   */\n      add\n        /* \"#utility.yul\":1051:1077   */\n      swap1\n      pop\n        /* \"#utility.yul\":1123:1132   */\n      dup2\n        /* \"#utility.yul\":1117:1121   */\n      dup2\n        /* \"#utility.yul\":1113:1133   */\n      sub\n        /* \"#utility.yul\":1109:1110   */\n      0x00\n        /* \"#utility.yul\":1098:1107   */\n      dup4\n        /* \"#utility.yul\":1094:1111   */\n      add\n        /* \"#utility.yul\":1087:1134   */\n      mstore\n        /* \"#utility.yul\":1151:1229   */\n      tag_54\n        /* \"#utility.yul\":1224:1228   */\n      dup2\n        /* \"#utility.yul\":1215:1221   */\n      dup5\n        /* \"#utility.yul\":1151:1229   */\n      tag_24\n      jump\t// in\n    tag_54:\n        /* \"#utility.yul\":1143:1229   */\n      swap1\n      pop\n        /* \"#utility.yul\":923:1236   */\n      swap3\n      swap2\n      pop\n      pop\n      jump\t// out\n        /* \"#utility.yul\":1242:1422   */\n    tag_25:\n        /* \"#utility.yul\":1290:1367   */\n      0x4e487b7100000000000000000000000000000000000000000000000000000000\n        /* \"#utility.yul\":1287:1288   */\n      0x00\n        /* \"#utility.yul\":1280:1368   */\n      mstore\n        /* \"#utility.yul\":1387:1391   */\n      0x22\n        /* \"#utility.yul\":1384:1385   */\n      0x04\n        /* \"#utility.yul\":1377:1392   */\n      mstore\n        /* \"#utility.yul\":1411:1415   */\n      0x24\n        /* \"#utility.yul\":1408:1409   */\n      0x00\n        /* \"#utility.yul\":1401:1416   */\n      revert\n        /* \"#utility.yul\":1428:1748   */\n    tag_12:\n        /* \"#utility.yul\":1472:1478   */\n      0x00\n        /* \"#utility.yul\":1509:1510   */\n      0x02\n        /* \"#utility.yul\":1503:1507   */\n      dup3\n        /* \"#utility.yul\":1499:1511   */\n      div\n        /* \"#utility.yul\":1489:1511   */\n      swap1\n      pop\n        /* \"#utility.yul\":1556:1557   */\n      0x01\n        /* \"#utility.yul\":1550:1554   */\n      dup3\n        /* \"#utility.yul\":1546:1558   */\n      and\n        /* \"#utility.yul\":1577:1595   */\n      dup1\n        /* \"#utility.yul\":1567:1648   */\n      tag_57\n      jumpi\n        /* \"#utility.yul\":1633:1637   */\n      0x7f\n        /* \"#utility.yul\":1625:1631   */\n      dup3\n        /* \"#utility.yul\":1621:1638   */\n      and\n        /* \"#utility.yul\":1611:1638   */\n      swap2\n      pop\n        /* \"#utility.yul\":1567:1648   */\n    tag_57:\n        /* \"#utility.yul\":1695:1697   */\n      0x20\n        /* \"#utility.yul\":1687:1693   */\n      dup3\n        /* \"#utility.yul\":1684:1698   */\n      lt\n        /* \"#utility.yul\":1664:1682   */\n      dup2\n        /* \"#utility.yul\":1661:1699   */\n      sub\n        /* \"#utility.yul\":1658:1742   */\n      tag_58\n      jumpi\n        /* \"#utility.yul\":1714:1732   */\n      tag_59\n      tag_25\n      jump\t// in\n    tag_59:\n        /* \"#utility.yul\":1658:1742   */\n    tag_58:\n        /* \"#utility.yul\":1479:1748   */\n      pop\n        /* \"#utility.yul\":1428:1748   */\n      swap2\n      swap1\n      pop\n      jump\t// out\n        /* \"#utility.yul\":1754:1934   */\n    tag_26:\n        /* \"#utility.yul\":1802:1879   */\n      0x4e487b7100000000000000000000000000000000000000000000000000000000\n        /* \"#utility.yul\":1799:1800   */\n      0x00\n        /* \"#utility.yul\":1792:1880   */\n      mstore\n        /* \"#utility.yul\":1899:1903   */\n      0x41\n        /* \"#utility.yul\":1896:1897   */\n      0x04\n        /* \"#utility.yul\":1889:1904   */\n      mstore\n        /* \"#utility.yul\":1923:1927   */\n      0x24\n        /* \"#utility.yul\":1920:1921   */\n      0x00\n        /* \"#utility.yul\":1913:1928   */\n      revert\n        /* \"#utility.yul\":1940:2081   */\n    tag_27:\n        /* \"#utility.yul\":1989:1993   */\n      0x00\n        /* \"#utility.yul\":2012:2015   */\n      dup2\n        /* \"#utility.yul\":2004:2015   */\n      swap1\n      pop\n        /* \"#utility.yul\":2035:2038   */\n      dup2\n        /* \"#utility.yul\":2032:2033   */\n      0x00\n        /* \"#utility.yul\":2025:2039   */\n      mstore\n        /* \"#utility.yul\":2069:2073   */\n      0x20\n        /* \"#utility.yul\":2066:2067   */\n      0x00\n        /* \"#utility.yul\":2056:2074   */\n      keccak256\n        /* \"#utility.yul\":2048:2074   */\n      swap1\n      pop\n        /* \"#utility.yul\":1940:2081   */\n      swap2\n      swap1\n      pop\n      jump\t// out\n        /* \"#utility.yul\":2087:2180   */\n    tag_28:\n        /* \"#utility.yul\":2124:2130   */\n      0x00\n        /* \"#utility.yul\":2171:2173   */\n      0x20\n        /* \"#utility.yul\":2166:2168   */\n      0x1f\n        /* \"#utility.yul\":2159:2164   */\n      dup4\n        /* \"#utility.yul\":2155:2169   */\n      add\n        /* \"#utility.yul\":2151:2174   */\n      div\n        /* \"#utility.yul\":2141:2174   */\n      swap1\n      pop\n        /* \"#utility.yul\":2087:2180   */\n      swap2\n      swap1\n      pop\n      jump\t// out\n        /* \"#utility.yul\":2186:2293   */\n    tag_29:\n        /* \"#utility.yul\":2230:2238   */\n      0x00\n        /* \"#utility.yul\":2280:2285   */\n      dup3\n        /* \"#utility.yul\":2274:2278   */\n      dup3\n        /* \"#utility.yul\":2270:2286   */\n      shl\n        /* \"#utility.yul\":2249:2286   */\n      swap1\n      pop\n        /* \"#utility.yul\":2186:2293   */\n      swap3\n      swap2\n      pop\n      pop\n      jump\t// out\n        /* \"#utility.yul\":2299:2692   */\n    tag_30:\n        /* \"#utility.yul\":2368:2374   */\n      0x00\n        /* \"#utility.yul\":2418:2419   */\n      0x08\n        /* \"#utility.yul\":2406:2416   */\n      dup4\n        /* \"#utility.yul\":2402:2420   */\n      mul\n        /* \"#utility.yul\":2441:2538   */\n      tag_65\n        /* \"#utility.yul\":2471:2537   */\n      0xffffffffffffffffffffffffffffffffffffffffffffffffffffffffffffffff\n        /* \"#utility.yul\":2460:2469   */\n      dup3\n        /* \"#utility.yul\":2441:2538   */\n      tag_29\n      jump\t// in\n    tag_65:\n        /* \"#utility.yul\":2559:2598   */\n      tag_66\n        /* \"#utility.yul\":2589:2597   */\n      dup7\n        /* \"#utility.yul\":2578:2587   */\n      dup4\n        /* \"#utility.yul\":2559:2598   */\n      tag_29\n      jump\t// in\n    tag_66:\n        /* \"#utility.yul\":2547:2598   */\n      swap6\n      pop\n        /* \"#utility.yul\":2631:2635   */\n      dup1\n        /* \"#utility.yul\":2627:2636   */\n      not\n        /* \"#utility.yul\":2620:2625   */\n      dup5\n        /* \"#utility.yul\":2616:2637   */\n      and\n        /* \"#utility.yul\":2607:2637   */\n      swap4\n      pop\n        /* \"#utility.yul\":2680:2684   */\n      dup1\n        /* \"#utility.yul\":2670:2678   */\n      dup7\n        /* \"#utility.yul\":2666:2685   */\n      and\n        /* \"#utility.yul\":2659:2664   */\n      dup5\n        /* \"#utility.yul\":2656:2686   */\n      or\n        /* \"#utility.yul\":2646:2686   */\n      swap3\n      pop\n        /* \"#utility.yul\":2375:2692   */\n      pop\n      pop\n        /* \"#utility.yul\":2299:2692   */\n      swap4\n      swap3\n      pop\n      pop\n      pop\n      jump\t// out\n        /* \"#utility.yul\":2698:2775   */\n    tag_31:\n        /* \"#utility.yul\":2735:2742   */\n      0x00\n        /* \"#utility.yul\":2764:2769   */\n      dup2\n        /* \"#utility.yul\":2753:2769   */\n      swap1\n      pop\n        /* \"#utility.yul\":2698:2775   */\n      swap2\n      swap1\n      pop\n      jump\t// out\n        /* \"#utility.yul\":2781:2841   */\n    tag_32:\n        /* \"#utility.yul\":2809:2812   */\n      0x00\n        /* \"#utility.yul\":2830:2835   */\n      dup2\n        /* \"#utility.yul\":2823:2835   */\n      swap1\n      pop\n        /* \"#utility.yul\":2781:2841   */\n      swap2\n      swap1\n      pop\n      jump\t// out\n        /* \"#utility.yul\":2847:2989   */\n    tag_33:\n        /* \"#utility.yul\":2897:2906   */\n      0x00\n        /* \"#utility.yul\":2930:2983   */\n      tag_70\n        /* \"#utility.yul\":2948:2982   */\n      tag_71\n        /* \"#utility.yul\":2957:2981   */\n      tag_72\n        /* \"#utility.yul\":2975:2980   */\n      dup5\n        /* \"#utility.yul\":2957:2981   */\n      tag_31\n      jump\t// in\n    tag_72:\n        /* \"#utility.yul\":2948:2982   */\n      tag_32\n      jump\t// in\n    tag_71:\n        /* \"#utility.yul\":2930:2983   */\n      tag_31\n      jump\t// in\n    tag_70:\n        /* \"#utility.yul\":2917:2983   */\n      swap1\n      pop\n        /* \"#utility.yul\":2847:2989   */\n      swap2\n      swap1\n      pop\n      jump\t// out\n        /* \"#utility.yul\":2995:3070   */\n    tag_34:\n        /* \"#utility.yul\":3038:3041   */\n      0x00\n        /* \"#utility.yul\":3059:3064   */\n      dup2\n        /* \"#utility.yul\":3052:3064   */\n      swap1\n      pop\n        /* \"#utility.yul\":2995:3070   */\n      swap2\n      swap1\n      pop\n      jump\t// out\n        /* \"#utility.yul\":3076:3345   */\n    tag_35:\n        /* \"#utility.yul\":3186:3225   */\n      tag_75\n        /* \"#utility.yul\":3217:3224   */\n      dup4\n        /* \"#utility.yul\":3186:3225   */\n      tag_33\n      jump\t// in\n    tag_75:\n        /* \"#utility.yul\":3247:3338   */\n      tag_76\n        /* \"#utility.yul\":3296:3337   */\n      tag_77\n        /* \"#utility.yul\":3320:3336   */\n      dup3\n        /* \"#utility.yul\":3296:3337   */\n      tag_34\n      jump\t// in\n    tag_77:\n        /* \"#utility.yul\":3288:3294   */\n      dup5\n        /* \"#utility.yul\":3281:3285   */\n      dup5\n        /* \"#utility.yul\":3275:3286   */\n      sload\n        /* \"#utility.yul\":3247:3338   */\n      tag_30\n      jump\t// in\n    tag_76:\n        /* \"#utility.yul\":3241:3245   */\n      dup3\n        /* \"#utility.yul\":3234:3339   */\n      sstore\n        /* \"#utility.yul\":3152:3345   */\n      pop\n        /* \"#utility.yul\":3076:3345   */\n      pop\n      pop\n      pop\n      jump\t// out\n        /* \"#utility.yul\":3351:3424   */\n    tag_36:\n        /* \"#utility.yul\":3396:3399   */\n      0x00\n        /* \"#utility.yul\":3417:3418   */\n      0x00\n        /* \"#utility.yul\":3410:3418   */\n      swap1\n      pop\n        /* \"#utility.yul\":3351:3424   */\n      swap1\n      jump\t// out\n        /* \"#utility.yul\":3430:3619   */\n    tag_37:\n        /* \"#utility.yul\":3507:3539   */\n      tag_80\n      tag_36\n      jump\t// in\n    tag_80:\n        /* \"#utility.yul\":3548:3613   */\n      tag_81\n        /* \"#utility.yul\":3606:3612   */\n      dup2\n        /* \"#utility.yul\":3598:3604   */\n      dup5\n        /* \"#utility.yul\":3592:3596   */\n      dup5\n        /* \"#utility.yul\":3548:3613   */\n      tag_35\n      jump\t// in\n    tag_81:\n        /* \"#utility.yul\":3483:3619   */\n      pop\n        /* \"#utility.yul\":3430:3619   */\n      pop\n      pop\n      jump\t// out\n        /* \"#utility.yul\":3625:3839   */\n    tag_38:\n        /* \"#utility.yul\":3710:3711   */\n      0x00\n        /* \"#utility.yul\":3695:3833   */\n    tag_83:\n        /* \"#utility.yul\":3720:3729   */\n      dup3\n        /* \"#utility.yul\":3717:3718   */\n      dup2\n        /* \"#utility.yul\":3714:3730   */\n      lt\n        /* \"#utility.yul\":3695:3833   */\n      iszero\n      tag_85\n      jumpi\n        /* \"#utility.yul\":3772:3823   */\n      tag_86\n        /* \"#utility.yul\":3821:3822   */\n      0x00\n        /* \"#utility.yul\":3817:3818   */\n      dup3\n        /* \"#utility.yul\":3806:3815   */\n      dup5\n        /* \"#utility.yul\":3802:3819   */\n      add\n        /* \"#utility.yul\":3772:3823   */\n      tag_37\n      jump\t// in\n    tag_86:\n        /* \"#utility.yul\":3745:3746   */\n      0x01\n        /* \"#utility.yul\":3742:3743   */\n      dup2\n        /* \"#utility.yul\":3738:3747   */\n      add\n        /* \"#utility.yul\":3733:3747   */\n      swap1\n      pop\n        /* \"#utility.yul\":3695:3833   */\n      jump(tag_83)\n    tag_85:\n        /* \"#utility.yul\":3699:3713   */\n      pop\n        /* \"#utility.yul\":3625:3839   */\n      pop\n      pop\n      jump\t// out\n        /* \"#utility.yul\":3845:4591   */\n    tag_39:\n        /* \"#utility.yul\":3946:3948   */\n      0x1f\n        /* \"#utility.yul\":3941:3944   */\n      dup3\n        /* \"#utility.yul\":3938:3949   */\n      gt\n        /* \"#utility.yul\":3935:4584   */\n      iszero\n      tag_88\n      jumpi\n        /* \"#utility.yul\":3975:3985   */\n      dup3\n        /* \"#utility.yul\":3970:3973   */\n      dup3\n        /* \"#utility.yul\":3967:3986   */\n      gt\n        /* \"#utility.yul\":3964:4574   */\n      iszero\n      tag_89\n      jumpi\n        /* \"#utility.yul\":4021:4059   */\n      tag_90\n        /* \"#utility.yul\":4053:4058   */\n      dup2\n        /* \"#utility.yul\":4021:4059   */\n      tag_27\n      jump\t// in\n    tag_90:\n        /* \"#utility.yul\":4096:4118   */\n      tag_91\n        /* \"#utility.yul\":4114:4117   */\n      dup4\n        /* \"#utility.yul\":4096:4118   */\n      tag_28\n      jump\t// in\n    tag_91:\n        /* \"#utility.yul\":4155:4184   */\n      tag_92\n        /* \"#utility.yul\":4173:4183   */\n      dup6\n        /* \"#utility.yul\":4155:4184   */\n      tag_28\n      jump\t// in\n    tag_92:\n        /* \"#utility.yul\":4345:4347   */\n      0x20\n        /* \"#utility.yul\":4333:4343   */\n      dup7\n        /* \"#utility.yul\":4330:4348   */\n      lt\n        /* \"#utility.yul\":4327:4406   */\n      iszero\n      tag_93\n      jumpi\n        /* \"#utility.yul\":4387:4388   */\n      0x00\n        /* \"#utility.yul\":4371:4388   */\n      swap1\n      pop\n        /* \"#utility.yul\":4327:4406   */\n    tag_93:\n        /* \"#utility.yul\":4456:4468   */\n      dup1\n        /* \"#utility.yul\":4446:4454   */\n      dup4\n        /* \"#utility.yul\":4442:4469   */\n      add\n        /* \"#utility.yul\":4486:4560   */\n      tag_94\n        /* \"#utility.yul\":4546:4558   */\n      dup3\n        /* \"#utility.yul\":4532:4544   */\n      dup5\n        /* \"#utility.yul\":4528:4559   */\n      sub\n        /* \"#utility.yul\":4515:4526   */\n      dup3\n        /* \"#utility.yul\":4486:4560   */\n      tag_38\n      jump\t// in\n    tag_94:\n        /* \"#utility.yul\":3987:4574   */\n      pop\n      pop\n      pop\n      pop\n        /* \"#utility.yul\":3964:4574   */\n    tag_89:\n        /* \"#utility.yul\":3935:4584   */\n    tag_88:\n        /* \"#utility.yul\":3845:4591   */\n      pop\n      pop\n      pop\n      jump\t// out\n        /* \"#utility.yul\":4597:4714   */\n    tag_40:\n        /* \"#utility.yul\":4651:4659   */\n      0x00\n        /* \"#utility.yul\":4701:4706   */\n      dup3\n        /* \"#utility.yul\":4695:4699   */\n      dup3\n        /* \"#utility.yul\":4691:4707   */\n      shr\n        /* \"#utility.yul\":4670:4707   */\n      swap1\n      pop\n        /* \"#utility.yul\":4597:4714   */\n      swap3\n      swap2\n      pop\n      pop\n      jump\t// out\n        /* \"#utility.yul\":4720:4889   */\n    tag_41:\n        /* \"#utility.yul\":4764:4770   */\n      0x00\n        /* \"#utility.yul\":4797:4848   */\n      tag_97\n        /* \"#utility.yul\":4845:4846   */\n      0x00\n        /* \"#utility.yul\":4841:4847   */\n      not\n        /* \"#utility.yul\":4833:4838   */\n      dup5\n        /* \"#utility.yul\":4830:4831   */\n      0x08\n        /* \"#utility.yul\":4826:4839   */\n      mul\n        /* \"#utility.yul\":4797:4848   */\n      tag_40\n      jump\t// in\n    tag_97:\n        /* \"#utility.yul\":4793:4849   */\n      not\n        /* \"#utility.yul\":4878:4882   */\n      dup1\n        /* \"#utility.yul\":4872:4876   */\n      dup4\n        /* \"#utility.yul\":4868:4883   */\n      and\n        /* \"#utility.yul\":4858:4883   */\n      swap2\n      pop\n        /* \"#utility.yul\":4771:4889   */\n      pop\n        /* \"#utility.yul\":4720:4889   */\n      swap3\n      swap2\n      pop\n      pop\n      jump\t// out\n        /* \"#utility.yul\":4894:5189   */\n    tag_42:\n        /* \"#utility.yul\":4970:4974   */\n      0x00\n        /* \"#utility.yul\":5116:5145   */\n      tag_99\n        /* \"#utility.yul\":5141:5144   */\n      dup4\n        /* \"#utility.yul\":5135:5139   */\n      dup4\n        /* \"#utility.yul\":5116:5145   */\n      tag_41\n      jump\t// in\n    tag_99:\n        /* \"#utility.yul\":5108:5145   */\n      swap2\n      pop\n        /* \"#utility.yul\":5178:5181   */\n      dup3\n        /* \"#utility.yul\":5175:5176   */\n      0x02\n        /* \"#utility.yul\":5171:5182   */\n      mul\n        /* \"#utility.yul\":5165:5169   */\n      dup3\n        /* \"#utility.yul\":5162:5183   */\n      or\n        /* \"#utility.yul\":5154:5183   */\n      swap1\n      pop\n        /* \"#utility.yul\":4894:5189   */\n      swap3\n      swap2\n      pop\n      pop\n      jump\t// out\n        /* \"#utility.yul\":5194:6589   */\n    tag_19:\n        /* \"#utility.yul\":5311:5348   */\n      tag_101\n        /* \"#utility.yul\":5344:5347   */\n      dup3\n        /* \"#utility.yul\":5311:5348   */\n      tag_20\n      jump\t// in\n    tag_101:\n        /* \"#utility.yul\":5413:5431   */\n      0xffffffffffffffff\n        /* \"#utility.yul\":5405:5411   */\n      dup2\n        /* \"#utility.yul\":5402:5432   */\n      gt\n        /* \"#utility.yul\":5399:5455   */\n      iszero\n      tag_102\n      jumpi\n        /* \"#utility.yul\":5435:5453   */\n      tag_103\n      tag_26\n      jump\t// in\n    tag_103:\n        /* \"#utility.yul\":5399:5455   */\n    tag_102:\n        /* \"#utility.yul\":5479:5517   */\n      tag_104\n        /* \"#utility.yul\":5511:5515   */\n      dup3\n        /* \"#utility.yul\":5505:5516   */\n      sload\n        /* \"#utility.yul\":5479:5517   */\n      tag_12\n      jump\t// in\n    tag_104:\n        /* \"#utility.yul\":5564:5631   */\n      tag_105\n        /* \"#utility.yul\":5624:5630   */\n      dup3\n        /* \"#utility.yul\":5616:5622   */\n      dup3\n        /* \"#utility.yul\":5610:5614   */\n      dup6\n        /* \"#utility.yul\":5564:5631   */\n      tag_39\n      jump\t// in\n    tag_105:\n        /* \"#utility.yul\":5658:5659   */\n      0x00\n        /* \"#utility.yul\":5682:5686   */\n      0x20\n        /* \"#utility.yul\":5669:5686   */\n      swap1\n      pop\n        /* \"#utility.yul\":5714:5716   */\n      0x1f\n        /* \"#utility.yul\":5706:5712   */\n      dup4\n        /* \"#utility.yul\":5703:5717   */\n      gt\n        /* \"#utility.yul\":5731:5732   */\n      0x01\n        /* \"#utility.yul\":5726:6344   */\n      dup2\n      eq\n      tag_107\n      jumpi\n        /* \"#utility.yul\":6388:6389   */\n      0x00\n        /* \"#utility.yul\":6405:6411   */\n      dup5\n        /* \"#utility.yul\":6402:6479   */\n      iszero\n      tag_108\n      jumpi\n        /* \"#utility.yul\":6454:6463   */\n      dup3\n        /* \"#utility.yul\":6449:6452   */\n      dup8\n        /* \"#utility.yul\":6445:6464   */\n      add\n        /* \"#utility.yul\":6439:6465   */\n      mload\n        /* \"#utility.yul\":6430:6465   */\n      swap1\n      pop\n        /* \"#utility.yul\":6402:6479   */\n    tag_108:\n        /* \"#utility.yul\":6505:6572   */\n      tag_109\n        /* \"#utility.yul\":6565:6571   */\n      dup6\n        /* \"#utility.yul\":6558:6563   */\n      dup3\n        /* \"#utility.yul\":6505:6572   */\n      tag_42\n      jump\t// in\n    tag_109:\n        /* \"#utility.yul\":6499:6503   */\n      dup7\n        /* \"#utility.yul\":6492:6573   */\n      sstore\n        /* \"#utility.yul\":6361:6583   */\n      pop\n        /* \"#utility.yul\":5696:6583   */\n      jump(tag_106)\n        /* \"#utility.yul\":5726:6344   */\n    tag_107:\n        /* \"#utility.yul\":5778:5782   */\n      0x1f\n        /* \"#utility.yul\":5774:5783   */\n      not\n        /* \"#utility.yul\":5766:5772   */\n      dup5\n        /* \"#utility.yul\":5762:5784   */\n      and\n        /* \"#utility.yul\":5812:5849   */\n      tag_110\n        /* \"#utility.yul\":5844:5848   */\n      dup7\n        /* \"#utility.yul\":5812:5849   */\n      tag_27\n      jump\t// in\n    tag_110:\n        /* \"#utility.yul\":5871:5872   */\n      0x00\n        /* \"#utility.yul\":5885:6093   */\n    tag_111:\n        /* \"#utility.yul\":5899:5906   */\n      dup3\n        /* \"#utility.yul\":5896:5897   */\n      dup2\n        /* \"#utility.yul\":5893:5907   */\n      lt\n        /* \"#utility.yul\":5885:6093   */\n      iszero\n      tag_113\n      jumpi\n        /* \"#utility.yul\":5978:5987   */\n      dup5\n        /* \"#utility.yul\":5973:5976   */\n      dup10\n        /* \"#utility.yul\":5969:5988   */\n      add\n        /* \"#utility.yul\":5963:5989   */\n      mload\n        /* \"#utility.yul\":5955:5961   */\n      dup3\n        /* \"#utility.yul\":5948:5990   */\n      sstore\n        /* \"#utility.yul\":6029:6030   */\n      0x01\n        /* \"#utility.yul\":6021:6027   */\n      dup3\n        /* \"#utility.yul\":6017:6031   */\n      add\n        /* \"#utility.yul\":6007:6031   */\n      swap2\n      pop\n        /* \"#utility.yul\":6076:6078   */\n      0x20\n        /* \"#utility.yul\":6065:6074   */\n      dup6\n        /* \"#utility.yul\":6061:6079   */\n      add\n        /* \"#utility.yul\":6048:6079   */\n      swap5\n      pop\n        /* \"#utility.yul\":5922:5926   */\n      0x20\n        /* \"#utility.yul\":5919:5920   */\n      dup2\n        /* \"#utility.yul\":5915:5927   */\n      add\n        /* \"#utility.yul\":5910:5927   */\n      swap1\n      pop\n        /* \"#utility.yul\":5885:6093   */\n      jump(tag_111)\n    tag_113:\n        /* \"#utility.yul\":6121:6127   */\n      dup7\n        /* \"#utility.yul\":6112:6119   */\n      dup4\n        /* \"#utility.yul\":6109:6128   */\n      lt\n        /* \"#utility.yul\":6106:6285   */\n      iszero\n      tag_114\n      jumpi\n        /* \"#utility.yul\":6179:6188   */\n      dup5\n        /* \"#utility.yul\":6174:6177   */\n      dup10\n        /* \"#utility.yul\":6170:6189   */\n      add\n        /* \"#utility.yul\":6164:6190   */\n      mload\n        /* \"#utility.yul\":6222:6270   */\n      tag_115\n        /* \"#utility.yul\":6264:6268   */\n      0x1f\n        /* \"#utility.yul\":6256:6262   */\n      dup10\n        /* \"#utility.yul\":6252:6269   */\n      and\n        /* \"#utility.yul\":6241:6250   */\n      dup3\n        /* \"#utility.yul\":6222:6270   */\n      tag_41\n      jump\t// in\n    tag_115:\n        /* \"#utility.yul\":6214:6220   */\n      dup4\n        /* \"#utility.yul\":6207:6271   */\n      sstore\n        /* \"#utility.yul\":6129:6285   */\n      pop\n        /* \"#utility.yul\":6106:6285   */\n    tag_114:\n        /* \"#utility.yul\":6331:6332   */\n      0x01\n        /* \"#utility.yul\":6327:6328   */\n      0x02\n        /* \"#utility.yul\":6319:6325   */\n      dup9\n        /* \"#utility.yul\":6315:6329   */\n      mul\n        /* \"#utility.yul\":6311:6333   */\n      add\n        /* \"#utility.yul\":6305:6309   */\n      dup9\n        /* \"#utility.yul\":6298:6334   */\n      sstore\n        /* \"#utility.yul\":5733:6344   */\n      pop\n      pop\n      pop\n        /* \"#utility.yul\":5696:6583   */\n    tag_106:\n      pop\n        /* \"#utility.yul\":5286:6589   */\n      pop\n      pop\n      pop\n        /* \"#utility.yul\":5194:6589   */\n      pop\n      pop\n      jump\t// out\n\n    auxdata: 0xa2646970667358221220a9d6986ab7027fd340dc65f49622c4b32b044a4abae663afaa4d83cbf3dd0fb664736f6c63430008220033\n}\n",
				"bytecode": {
					"linkReferences": {},
					"object": "6080604052348015600e575f5ffd5b5061050a8061001c5f395ff3fe608060405234801561000f575f5ffd5b5060043610610034575f3560e01c8063200d2ed214610038578063786f0dea14610056575b5f5ffd5b610040610060565b60405161004d91906101a1565b60405180910390f35b61005e6100eb565b005b5f805461006c906101ee565b80601f0160208091040260200160405190810160405280929190818152602001828054610098906101ee565b80156100e35780601f106100ba576101008083540402835291602001916100e3565b820191905f5260205f20905b8154815290600101906020018083116100c657829003601f168201915b505050505081565b6040518060400160405280600f81526020017f50726f6475746f20656e766961646f00000000000000000000000000000000008152505f908161012e9190610405565b50565b5f81519050919050565b5f82825260208201905092915050565b8281835e5f83830152505050565b5f601f19601f8301169050919050565b5f61017382610131565b61017d818561013b565b935061018d81856020860161014b565b61019681610159565b840191505092915050565b5f6020820190508181035f8301526101b98184610169565b905092915050565b7f4e487b71000000000000000000000000000000000000000000000000000000005f52602260045260245ffd5b5f600282049050600182168061020557607f821691505b602082108103610218576102176101c1565b5b50919050565b7f4e487b71000000000000000000000000000000000000000000000000000000005f52604160045260245ffd5b5f819050815f5260205f209050919050565b5f6020601f8301049050919050565b5f82821b905092915050565b5f600883026102a77fffffffffffffffffffffffffffffffffffffffffffffffffffffffffffffffff8261026c565b6102b1868361026c565b95508019841693508086168417925050509392505050565b5f819050919050565b5f819050919050565b5f6102f56102f06102eb846102c9565b6102d2565b6102c9565b9050919050565b5f819050919050565b61030e836102db565b61032261031a826102fc565b848454610278565b825550505050565b5f5f905090565b61033961032a565b610344818484610305565b505050565b5f5b8281101561036a5761035f5f828401610331565b60018101905061034b565b505050565b601f8211156103bd57828211156103bc576103898161024b565b6103928361025d565b61039b8561025d565b60208610156103a8575f90505b8083016103b782840382610349565b505050505b5b505050565b5f82821c905092915050565b5f6103dd5f19846008026103c2565b1980831691505092915050565b5f6103f583836103ce565b9150826002028217905092915050565b61040e82610131565b67ffffffffffffffff8111156104275761042661021e565b5b61043182546101ee565b61043c82828561036f565b5f60209050601f83116001811461046d575f841561045b578287015190505b61046585826103ea565b8655506104cc565b601f19841661047b8661024b565b5f5b828110156104a25784890151825560018201915060208501945060208101905061047d565b868310156104bf57848901516104bb601f8916826103ce565b8355505b6001600288020188555050505b50505050505056fea2646970667358221220a9d6986ab7027fd340dc65f49622c4b32b044a4abae663afaa4d83cbf3dd0fb664736f6c63430008220033",
					"opcodes": "PUSH1 0x80 PUSH1 0x40 MSTORE CALLVALUE DUP1 ISZERO PUSH1 0xE JUMPI PUSH0 PUSH0 REVERT JUMPDEST POP PUSH2 0x50A DUP1 PUSH2 0x1C PUSH0 CODECOPY PUSH0 RETURN INVALID PUSH1 0x80 PUSH1 0x40 MSTORE CALLVALUE DUP1 ISZERO PUSH2 0xF JUMPI PUSH0 PUSH0 REVERT JUMPDEST POP PUSH1 0x4 CALLDATASIZE LT PUSH2 0x34 JUMPI PUSH0 CALLDATALOAD PUSH1 0xE0 SHR DUP1 PUSH4 0x200D2ED2 EQ PUSH2 0x38 JUMPI DUP1 PUSH4 0x786F0DEA EQ PUSH2 0x56 JUMPI JUMPDEST PUSH0 PUSH0 REVERT JUMPDEST PUSH2 0x40 PUSH2 0x60 JUMP JUMPDEST PUSH1 0x40 MLOAD PUSH2 0x4D SWAP2 SWAP1 PUSH2 0x1A1 JUMP JUMPDEST PUSH1 0x40 MLOAD DUP1 SWAP2 SUB SWAP1 RETURN JUMPDEST PUSH2 0x5E PUSH2 0xEB JUMP JUMPDEST STOP JUMPDEST PUSH0 DUP1 SLOAD PUSH2 0x6C SWAP1 PUSH2 0x1EE JUMP JUMPDEST DUP1 PUSH1 0x1F ADD PUSH1 0x20 DUP1 SWAP2 DIV MUL PUSH1 0x20 ADD PUSH1 0x40 MLOAD SWAP1 DUP2 ADD PUSH1 0x40 MSTORE DUP1 SWAP3 SWAP2 SWAP1 DUP2 DUP2 MSTORE PUSH1 0x20 ADD DUP3 DUP1 SLOAD PUSH2 0x98 SWAP1 PUSH2 0x1EE JUMP JUMPDEST DUP1 ISZERO PUSH2 0xE3 JUMPI DUP1 PUSH1 0x1F LT PUSH2 0xBA JUMPI PUSH2 0x100 DUP1 DUP4 SLOAD DIV MUL DUP4 MSTORE SWAP2 PUSH1 0x20 ADD SWAP2 PUSH2 0xE3 JUMP JUMPDEST DUP3 ADD SWAP2 SWAP1 PUSH0 MSTORE PUSH1 0x20 PUSH0 KECCAK256 SWAP1 JUMPDEST DUP2 SLOAD DUP2 MSTORE SWAP1 PUSH1 0x1 ADD SWAP1 PUSH1 0x20 ADD DUP1 DUP4 GT PUSH2 0xC6 JUMPI DUP3 SWAP1 SUB PUSH1 0x1F AND DUP3 ADD SWAP2 JUMPDEST POP POP POP POP POP DUP2 JUMP JUMPDEST PUSH1 0x40 MLOAD DUP1 PUSH1 0x40 ADD PUSH1 0x40 MSTORE DUP1 PUSH1 0xF DUP2 MSTORE PUSH1 0x20 ADD PUSH32 0x50726F6475746F20656E766961646F0000000000000000000000000000000000 DUP2 MSTORE POP PUSH0 SWAP1 DUP2 PUSH2 0x12E SWAP2 SWAP1 PUSH2 0x405 JUMP JUMPDEST POP JUMP JUMPDEST PUSH0 DUP2 MLOAD SWAP1 POP SWAP2 SWAP1 POP JUMP JUMPDEST PUSH0 DUP3 DUP3 MSTORE PUSH1 0x20 DUP3 ADD SWAP1 POP SWAP3 SWAP2 POP POP JUMP JUMPDEST DUP3 DUP2 DUP4 MCOPY PUSH0 DUP4 DUP4 ADD MSTORE POP POP POP JUMP JUMPDEST PUSH0 PUSH1 0x1F NOT PUSH1 0x1F DUP4 ADD AND SWAP1 POP SWAP2 SWAP1 POP JUMP JUMPDEST PUSH0 PUSH2 0x173 DUP3 PUSH2 0x131 JUMP JUMPDEST PUSH2 0x17D DUP2 DUP6 PUSH2 0x13B JUMP JUMPDEST SWAP4 POP PUSH2 0x18D DUP2 DUP6 PUSH1 0x20 DUP7 ADD PUSH2 0x14B JUMP JUMPDEST PUSH2 0x196 DUP2 PUSH2 0x159 JUMP JUMPDEST DUP5 ADD SWAP2 POP POP SWAP3 SWAP2 POP POP JUMP JUMPDEST PUSH0 PUSH1 0x20 DUP3 ADD SWAP1 POP DUP2 DUP2 SUB PUSH0 DUP4 ADD MSTORE PUSH2 0x1B9 DUP2 DUP5 PUSH2 0x169 JUMP JUMPDEST SWAP1 POP SWAP3 SWAP2 POP POP JUMP JUMPDEST PUSH32 0x4E487B7100000000000000000000000000000000000000000000000000000000 PUSH0 MSTORE PUSH1 0x22 PUSH1 0x4 MSTORE PUSH1 0x24 PUSH0 REVERT JUMPDEST PUSH0 PUSH1 0x2 DUP3 DIV SWAP1 POP PUSH1 0x1 DUP3 AND DUP1 PUSH2 0x205 JUMPI PUSH1 0x7F DUP3 AND SWAP2 POP JUMPDEST PUSH1 0x20 DUP3 LT DUP2 SUB PUSH2 0x218 JUMPI PUSH2 0x217 PUSH2 0x1C1 JUMP JUMPDEST JUMPDEST POP SWAP2 SWAP1 POP JUMP JUMPDEST PUSH32 0x4E487B7100000000000000000000000000000000000000000000000000000000 PUSH0 MSTORE PUSH1 0x41 PUSH1 0x4 MSTORE PUSH1 0x24 PUSH0 REVERT JUMPDEST PUSH0 DUP2 SWAP1 POP DUP2 PUSH0 MSTORE PUSH1 0x20 PUSH0 KECCAK256 SWAP1 POP SWAP2 SWAP1 POP JUMP JUMPDEST PUSH0 PUSH1 0x20 PUSH1 0x1F DUP4 ADD DIV SWAP1 POP SWAP2 SWAP1 POP JUMP JUMPDEST PUSH0 DUP3 DUP3 SHL SWAP1 POP SWAP3 SWAP2 POP POP JUMP JUMPDEST PUSH0 PUSH1 0x8 DUP4 MUL PUSH2 0x2A7 PUSH32 0xFFFFFFFFFFFFFFFFFFFFFFFFFFFFFFFFFFFFFFFFFFFFFFFFFFFFFFFFFFFFFFFF DUP3 PUSH2 0x26C JUMP JUMPDEST PUSH2 0x2B1 DUP7 DUP4 PUSH2 0x26C JUMP JUMPDEST SWAP6 POP DUP1 NOT DUP5 AND SWAP4 POP DUP1 DUP7 AND DUP5 OR SWAP3 POP POP POP SWAP4 SWAP3 POP POP POP JUMP JUMPDEST PUSH0 DUP2 SWAP1 POP SWAP2 SWAP1 POP JUMP JUMPDEST PUSH0 DUP2 SWAP1 POP SWAP2 SWAP1 POP JUMP JUMPDEST PUSH0 PUSH2 0x2F5 PUSH2 0x2F0 PUSH2 0x2EB DUP5 PUSH2 0x2C9 JUMP JUMPDEST PUSH2 0x2D2 JUMP JUMPDEST PUSH2 0x2C9 JUMP JUMPDEST SWAP1 POP SWAP2 SWAP1 POP JUMP JUMPDEST PUSH0 DUP2 SWAP1 POP SWAP2 SWAP1 POP JUMP JUMPDEST PUSH2 0x30E DUP4 PUSH2 0x2DB JUMP JUMPDEST PUSH2 0x322 PUSH2 0x31A DUP3 PUSH2 0x2FC JUMP JUMPDEST DUP5 DUP5 SLOAD PUSH2 0x278 JUMP JUMPDEST DUP3 SSTORE POP POP POP POP JUMP JUMPDEST PUSH0 PUSH0 SWAP1 POP SWAP1 JUMP JUMPDEST PUSH2 0x339 PUSH2 0x32A JUMP JUMPDEST PUSH2 0x344 DUP2 DUP5 DUP5 PUSH2 0x305 JUMP JUMPDEST POP POP POP JUMP JUMPDEST PUSH0 JUMPDEST DUP3 DUP2 LT ISZERO PUSH2 0x36A JUMPI PUSH2 0x35F PUSH0 DUP3 DUP5 ADD PUSH2 0x331 JUMP JUMPDEST PUSH1 0x1 DUP2 ADD SWAP1 POP PUSH2 0x34B JUMP JUMPDEST POP POP POP JUMP JUMPDEST PUSH1 0x1F DUP3 GT ISZERO PUSH2 0x3BD JUMPI DUP3 DUP3 GT ISZERO PUSH2 0x3BC JUMPI PUSH2 0x389 DUP2 PUSH2 0x24B JUMP JUMPDEST PUSH2 0x392 DUP4 PUSH2 0x25D JUMP JUMPDEST PUSH2 0x39B DUP6 PUSH2 0x25D JUMP JUMPDEST PUSH1 0x20 DUP7 LT ISZERO PUSH2 0x3A8 JUMPI PUSH0 SWAP1 POP JUMPDEST DUP1 DUP4 ADD PUSH2 0x3B7 DUP3 DUP5 SUB DUP3 PUSH2 0x349 JUMP JUMPDEST POP POP POP POP JUMPDEST JUMPDEST POP POP POP JUMP JUMPDEST PUSH0 DUP3 DUP3 SHR SWAP1 POP SWAP3 SWAP2 POP POP JUMP JUMPDEST PUSH0 PUSH2 0x3DD PUSH0 NOT DUP5 PUSH1 0x8 MUL PUSH2 0x3C2 JUMP JUMPDEST NOT DUP1 DUP4 AND SWAP2 POP POP SWAP3 SWAP2 POP POP JUMP JUMPDEST PUSH0 PUSH2 0x3F5 DUP4 DUP4 PUSH2 0x3CE JUMP JUMPDEST SWAP2 POP DUP3 PUSH1 0x2 MUL DUP3 OR SWAP1 POP SWAP3 SWAP2 POP POP JUMP JUMPDEST PUSH2 0x40E DUP3 PUSH2 0x131 JUMP JUMPDEST PUSH8 0xFFFFFFFFFFFFFFFF DUP2 GT ISZERO PUSH2 0x427 JUMPI PUSH2 0x426 PUSH2 0x21E JUMP JUMPDEST JUMPDEST PUSH2 0x431 DUP3 SLOAD PUSH2 0x1EE JUMP JUMPDEST PUSH2 0x43C DUP3 DUP3 DUP6 PUSH2 0x36F JUMP JUMPDEST PUSH0 PUSH1 0x20 SWAP1 POP PUSH1 0x1F DUP4 GT PUSH1 0x1 DUP2 EQ PUSH2 0x46D JUMPI PUSH0 DUP5 ISZERO PUSH2 0x45B JUMPI DUP3 DUP8 ADD MLOAD SWAP1 POP JUMPDEST PUSH2 0x465 DUP6 DUP3 PUSH2 0x3EA JUMP JUMPDEST DUP7 SSTORE POP PUSH2 0x4CC JUMP JUMPDEST PUSH1 0x1F NOT DUP5 AND PUSH2 0x47B DUP7 PUSH2 0x24B JUMP JUMPDEST PUSH0 JUMPDEST DUP3 DUP2 LT ISZERO PUSH2 0x4A2 JUMPI DUP5 DUP10 ADD MLOAD DUP3 SSTORE PUSH1 0x1 DUP3 ADD SWAP2 POP PUSH1 0x20 DUP6 ADD SWAP5 POP PUSH1 0x20 DUP2 ADD SWAP1 POP PUSH2 0x47D JUMP JUMPDEST DUP7 DUP4 LT ISZERO PUSH2 0x4BF JUMPI DUP5 DUP10 ADD MLOAD PUSH2 0x4BB PUSH1 0x1F DUP10 AND DUP3 PUSH2 0x3CE JUMP JUMPDEST DUP4 SSTORE POP JUMPDEST PUSH1 0x1 PUSH1 0x2 DUP9 MUL ADD DUP9 SSTORE POP POP POP JUMPDEST POP POP POP POP POP POP JUMP INVALID LOG2 PUSH5 0x6970667358 0x22 SLT KECCAK256 0xA9 0xD6 SWAP9 PUSH11 0xB7027FD340DC65F49622C4 0xB3 0x2B DIV BLOBBASEFEE BLOBBASEFEE 0xBA DUPN 0x63 0xAF 0xAA 0x4D DUP4 0xCB RETURN 0xDD 0xF 0xB6 PUSH5 0x736F6C6343 STOP ADDMOD 0x22 STOP CALLER "
				},
				"gasEstimates": {
					"creation": {
						"codeDepositCost": "258000",
						"executionCost": "298",
						"totalCost": "258298"
					},
					"external": {
						"resgistrarEnvio()": "infinite",
						"status()": "infinite"
					}
				},
				"methodIdentifiers": {
					"resgistrarEnvio()": "786f0dea",
					"status()": "200d2ed2"
				}
			},
			"storageLayout": {
				"storage": [
					{
						"astId": 3,
						"contract": "Logistica.sol:Logistica",
						"label": "status",
						"offset": 0,
						"slot": "0",
						"type": "t_string_storage"
					}
				],
				"types": {
					"t_string_storage": {
						"encoding": "bytes",
						"label": "string",
						"numberOfBytes": "32"
					}
				}
			},
			"userdoc": {
				"kind": "user",
				"methods": {},
				"version": 1
			}
		}
	}
}